:100000000C9434000C9451000C9451000C94510049
:100010000C9451000C9451000C9451000C9451001C
:100020000C9451000C9451000C9451000C9451000C
:100030000C9451000C9451000C9451000C945100FC
:100040000C9451000C9451000C945E010C945100DE
:100050000C9451000C9451000C9451000C945100DC
:100060000C9451000C94510011241FBECFEFD8E026
:10007000DEBFCDBF11E0A0E0B1E0E2E1F3E002C0FD
:1000800005900D92AA31B107D9F721E0AAE1B1E0BC
:1000900001C01D92AB31B207E1F70E9428010C9418
:1000A00087010C94000080FF04C09BB194609BB951
:1000B00003C09BB19B7F9BB981FF04C09BB198603B
:1000C0009BB903C09BB1977F9BB982FF04C09BB1D2
:1000D00090619BB903C09BB19F7E9BB983FF04C015
:1000E0009BB190629BB903C09BB19F7D9BB984FF7C
:1000F00004C09BB190649BB903C09BB19F7B9BB92B
:1001000085FF04C09BB190689BB903C09BB19F77EA
:100110009BB986FF04C095B1916095B903C095B1B4
:100120009E7F95B9882324F485B1826085B90895AE
:1001300085B18D7F85B9089595B1977F95B90E9456
:10014000530085B1846085B98FE19EE40197F1F792
:1001500000C0000085B18B7F85B908958AB18C6F8E
:100160008AB984B18F6084B98BB183708BB985B142
:10017000837F85B980E00E9453002FEF89EF90E0E4
:10018000215080409040E1F700C0000080E30E94D1
:100190009C008FE19EE40197F1F700C0000080E32E
:1001A0000E949C008FED91E00197F1F700C00000E4
:1001B00080E30E949C008FED91E00197F1F700C071
:1001C000000088E30E949C008FED91E00197F1F719
:1001D00000C0000088E30E949C008CE00E949C000C
:1001E00086E00E949C0081E00E949C00089595B1E9
:1001F000986095B90E94530085B1846085B98FE1FC
:100200009EE40197F1F700C0000085B18B7F85B9AE
:1002100008950F931F93CF938C01C0E003C00E94F9
:10022000F700CF5FF801EC0FF11D80818111F7CF4E
:10023000CF911F910F910895613021F481580E9450
:100240009C000895623019F481540E949C00089526
:100250000E94AE000E946E0161E082E00E941C01DB
:1002600080E091E00E94090161E087E00E941C01AA
:1002700084E091E00E94090161E08DE00E941C0190
:1002800088E091E00E94090162E081E00E941C0187
:100290008CE091E00E94090162E086E00E941C016E
:1002A00080E191E00E94090162E08CE00E941C0163
:1002B00085E191E00E9409017894FFCF1F920F928F
:1002C0000FB60F9211248F938091C60080931A016C
:1002D0008F910F900FBE0F901F9018958AB182607A
:1002E0008AB98AB18E7F8AB91092C000E1ECF0E041
:1002F000808188698083E2ECF0E080818660808381
:1003000087E690E09093C5008093C4000895F89428
:02031000FFCF1D
:1003120053313A0053323A0053333A0041444300D6
:0A032200434F4E540054454D500067
:00000001FF
