:100000000C9434000C9451000C9451000C94510049
:100010000C9451000C9451000C9451000C9451001C
:100020000C9451000C9451000C9451000C9451000C
:100030000C9451000C9451000C9451000C945100FC
:100040000C9451000C9451000C9441030C945100F9
:100050000C9451000C9451000C9451000C945100DC
:100060000C9451000C94510011241FBECFEFD8E026
:10007000DEBFCDBF11E0A0E0B1E0EEEBFCE002C0DE
:1000800005900D92A832B107D9F721E0A8E2B1E0BE
:1000900001C01D92A135B207E1F70E94FC010C944A
:1000A0005D060C94000087B18F7C87B9443079F0ED
:1000B00018F4442331F023C0403191F04034C9F0AA
:1000C0001EC0E9EBF0E080818C7F80831DC0E9EBEE
:1000D000F0E080818D7F808380818160808314C087
:1000E000E9EBF0E080818E7F808380818260808375
:1000F0000BC0E9EBF0E080818360808305C0E9EB11
:10010000F0E080818C7F808382E18093B800ECEB0B
:10011000F0E0808184608083089584EA8093BC004D
:100120008091BC008823E4F79091B900987F81E02A
:10013000983009F080E0089584EA8093BC008091B3
:10014000BC008823E4F79091B900987F81E090315A
:1001500009F080E0089584E98093BC008091BC00A0
:1001600084FDFCCF08958093BB0084E88093BC009D
:100170008091BC008823E4F78091B900887F8831A2
:1001800031F0883231F0803429F481E0089581E043
:10019000089581E00895FC01662321F084EC8093AA
:1001A000BC0003C084E88093BC009091BC009923FC
:1001B000E4F79091B900987F662311F0903549F4E7
:1001C000611102C0983539F48091BB00808381E0D1
:1001D000089580E0089580E0089580FF04C09BB1F9
:1001E00094609BB903C09BB19B7F9BB981FF04C006
:1001F0009BB198609BB903C09BB1977F9BB982FF6D
:1002000004C09BB190619BB903C09BB19F7E9BB919
:1002100083FF04C09BB190629BB903C09BB19F7DDB
:100220009BB984FF04C09BB190649BB903C09BB190
:100230009F7B9BB985FF04C09BB190689BB903C0AD
:100240009BB19F779BB986FF04C095B1916095B92A
:1002500003C095B19E7F95B9882324F485B182604F
:1002600085B9089585B18D7F85B9089598B19D7F31
:1002700098B90E94ED0088B1816088B98FE19EE451
:100280000197F1F700C0000088B18E7F88B908950A
:100290008AB18C6F8AB984B1836084B987B1836075
:1002A00087B98BB183708BB985B18C7F85B988B1E3
:1002B0008C7F88B980E00E94ED002FEF89EF90E0FD
:1002C000215080409040E1F700C0000080E30E9490
:1002D00036018FE19EE40197F1F700C0000080E352
:1002E0000E9436018FED91E00197F1F700C0000008
:1002F00080E30E9436018FED91E00197F1F700C095
:10030000000088E30E9436018FED91E00197F1F73C
:1003100000C0000088E30E9436018CE00E94360194
:1003200086E00E94360181E00E943601089598B16E
:10033000926098B90E94ED0088B1816088B98FE120
:100340009EE40197F1F700C0000088B18E7F88B964
:1003500008950F931F93CF938C01C0E003C00E94B8
:100360009701CF5FF801EC0FF11D80818111F7CF6C
:10037000CF911F910F910895613021F481580E940F
:1003800036010895623019F481540E9436010895AF
:1003900090E0982F8827862B880F892F881F990B2C
:1003A00099230CF4019695958795992314F480E090
:1003B00090E08F3F910519F014F08FEF90E00895D1
:1003C0000F931F9390E0A0E0B0E0DC01992788270D
:1003D000062F10E020E030E0322F212F102F0027D1
:1003E000802B912BA22BB32BBC01CD01642B87FD5D
:1003F0009F6F1F910F9108950E9448010E94510321
:1004000044E060EA76E881E090E00E94530061E019
:1004100081E00E94BC0180E091E00E94A90161E0BE
:1004200086E00E94BC0185E091E00E94A90161E0A4
:100430008CE00E94BC018BE091E00E94A90187B191
:10044000886087B988B1877F88B978940E948D00C9
:100450008823E1F380E60E94B300811103C00E946B
:10046000AB00F4CF83E40E94B3000E949C00811192
:1004700003C00E94AB00EACF81E60E94B300811165
:1004800003C00E94AB00E2CF60E088E291E00E94EE
:10049000CB0062E081E00E94BC01809128011F92A4
:1004A0008F9381E191E09F938F931F9287E08F93C9
:1004B00082E491E09F938F930E94650382E491E030
:1004C0000E94A9010E94AB000E948D002DB73EB78B
:1004D000285F3F4F0FB6F8943EBF0FBE2DBF882355
:1004E00009F4B4CF80EA0E94B300811103C00E94D6
:1004F000AB00ACCF84E50E94B3000E949C00811148
:1005000003C00E94AB00A2CF81EA0E94B300811118
:1005100003C00E94AB009ACF61E08CE391E00E949F
:10052000CB0061E08DE291E00E94CB0060E08CE2C4
:1005300091E00E94CB0062E087E00E94BC01409104
:100540002C0160912D0180913C010E94E00160939B
:100550003D0170933E0180933F01909340019F9332
:100560008F937F936F9388E191E09F938F931F9276
:100570008AE08F9381E391E09F938F930E946503BC
:1005800081E391E00E94A9010E94AB000E948D00CE
:100590002DB73EB7265F3F4F0FB6F8943EBF0FBE54
:1005A0002DBF882309F452CF80E90E94B300811146
:1005B00003C00E94AB004ACF80E00E94B3000E94BB
:1005C000AB000E948D00882309F440CF81E90E948E
:1005D000B300811103C00E94AB0038CF61E08FE20D
:1005E00091E00E94CB0060E08AE291E00E94CB00A3
:1005F00088B1886088B90E94AB0060912A0180911F
:100600002F010E94C8018093410162E08CE00E94AA
:10061000BC011F928FED8F93809141011F928F93A8
:1006200080E291E09F938F931F9288E08F9389E4FB
:1006300091E09F938F930E94650389E491E00E946B
:10064000A9010E948D002DB73EB7265F3F4F0FB620
:10065000F8943EBF0FBE2DBF882309F4F7CE80EA81
:100660000E94B300811103C00E94AB00EFCE8BE467
:100670000E94B300809141010E94B3000E94AB0030
:10068000E5CE1F920F920FB60F9211248F93809197
:10069000C60080933B018F910F900FBE0F901F906B
:1006A00018958AB182608AB98AB18E7F8AB9109210
:1006B000C000E2ECF0E080818660808387E690E015
:1006C0009093C5008093C4000895AEE0B0E0EBE6DF
:1006D000F3E00C9434060D891E898F89988D26E0ED
:1006E0002C831A83098397FF02C080E090E801976A
:1006F0009E838D83AE01455E5F4F698D7A8DCE01FD
:1007000001960E9495034D815E8157FD0AC02F819D
:100710003885421753070CF49A01F801E20FF31FD2
:1007200010822E96E4E00C945006ABE0B0E0EBE9CA
:10073000F3E00C9426066C017B018A01FC01178210
:100740001682838181FFCCC1CE0101963C01F60166
:100750009381F70193FD859193FF81917F01882318
:1007600009F4BAC1853239F493FD859193FF8191E3
:100770007F01853229F4B60190E00E948C05E7CF15
:10078000912C212C312CFFE1F315D8F08B3279F02C
:1007900038F4803279F08332A1F4232D20611DC01A
:1007A0008D3261F0803369F4232D216016C0832DD2
:1007B0008260382EE32DE4603E2E2AC0F32DF860CF
:1007C0001DC037FC2DC020ED280F2A3040F08E329E
:1007D000B9F436FC81C1232D2064322E19C036FEB7
:1007E00006C08AE0989E200D1124922E11C0EAE0E6
:1007F0002E9E200D1124222EF32DF0623F2E08C0D4
:100800008C3621F4832D8068382E02C0883641F45E
:10081000F70193FD859193FF81917F018111B3CF02
:10082000982F9F7D9554933028F40C5F1F4F9FE3C2
:1008300099830DC0833631F0833771F0833509F029
:1008400059C021C0F801808189830E5F1F4F882421
:100850008394912C530113C02801F2E04F0E511CD8
:10086000F801A080B18036FE03C0692D70E002C09F
:100870006FEF7FEFC5010E9481054C018201F32DCE
:10088000FF773F2E16C0280122E0420E511CF801CE
:10089000A080B18036FE03C0692D70E002C06FEF0A
:1008A0007FEFC5010E9476054C01F32DF0683F2EC5
:1008B000820133FC1BC0822D90E088169906B0F4AB
:1008C000B60180E290E00E948C052A94F4CFF501F5
:1008D00037FC859137FE81915F01B60190E00E945F
:1008E0008C0521102A9421E0821A91088114910428
:1008F00071F7E8C0843611F0893641F5F80137FE0A
:1009000007C060817181828193810C5F1F4F08C095
:1009100060817181072E000C880B990B0E5F1F4FB1
:10092000F32DFF763F2E97FF09C090958095709527
:1009300061957F4F8F4F9F4FF0683F2E2AE030E048
:10094000A3010E94C805882E861845C0853731F45A
:10095000232D2F7EB22E2AE030E025C0932D997FE3
:10096000B92E8F36C1F018F4883579F0B5C08037CC
:1009700019F0883721F0B0C0E92FE061BE2EB4FE37
:100980000DC0FB2DF460BF2E09C034FE0AC0292F14
:100990002660B22E06C028E030E005C020E130E03D
:1009A00002C020E132E0F801B7FE07C0608171812A
:1009B000828193810C5F1F4F06C06081718180E04E
:1009C00090E00E5F1F4FA3010E94C805882E861875
:1009D000FB2DFF773F2E36FE0DC0232D2E7FA22E3E
:1009E000891458F434FE0BC032FC09C0832D8E7E6E
:1009F000A82E05C0B82CA32C03C0B82C01C0B92C5C
:100A0000A4FE0FC0FE01E80DF11D8081803321F4AA
:100A10009A2D997EA92E09C0A2FE06C0B394B39464
:100A200004C08A2D867809F0B394A3FC11C0A0FEFF
:100A300006C0B21488F4280C922C9B180EC0B21475
:100A400060F4B60180E290E00E948C05B394F7CF89
:100A5000B21418F42B1802C0982C212CA4FE10C03C
:100A6000B60180E390E00E948C05A2FE17C0A1FCB5
:100A700003C088E790E002C088E590E0B6010CC0B2
:100A80008A2D867859F0A1FE02C08BE201C080E277
:100A9000A7FC8DE2B60190E00E948C05891438F421
:100AA000B60180E390E00E948C059A94F7CF8A9477
:100AB000F301E80DF11D8081B60190E00E948C05E4
:100AC0008110F5CF222009F442CEB60180E290E0F9
:100AD0000E948C052A94F6CFF6018681978102C088
:100AE0008FEF9FEF2B96E2E10C944206FC010590FC
:100AF000615070400110D8F7809590958E0F9F1F20
:100B00000895FC016150704001900110D8F7809564
:100B100090958E0F9F1F08950F931F93CF93DF9390
:100B2000FB01238121FD03C08FEF9FEF2CC022FF2B
:100B300016C046815781248135814217530744F4FA
:100B4000A081B1819D012F5F3F4F318320838C9322
:100B5000268137812F5F3F4F3783268314C08B0157
:100B6000EC01FB010084F185E02D0995892BE1F66C
:100B7000D80116968D919C911797019617969C9384
:100B80008E931697CE01DF91CF911F910F9108950B
:100B9000FA01AA27283051F1203181F1E8946F93AE
:100BA0006E7F6E5F7F4F8F4F9F4FAF4FB1E03ED054
:100BB000B4E03CD0670F781F891F9A1FA11D680FF2
:100BC000791F8A1F911DA11D6A0F711D811D911D25
:100BD000A11D20D009F468943F912AE0269F11249A
:100BE0003019305D3193DEF6CF010895462F4770FE
:100BF000405D4193B3E00FD0C9F7F6CF462F4F7059
:100C0000405D4A3318F0495D31FD4052419302D0B6
:100C1000A9F7EACFB4E0A69597958795779567955C
:100C2000BA95C9F700976105710508959B01AC015C
:100C30000A2E06945795479537952795BA95C9F783
:100C4000620F731F841F951FA01D08952F923F925E
:100C50004F925F926F927F928F929F92AF92BF92CC
:100C6000CF92DF92EF92FF920F931F93CF93DF9378
:100C7000CDB7DEB7CA1BDB0B0FB6F894DEBF0FBED5
:100C8000CDBF09942A88398848885F846E847D8422
:100C90008C849B84AA84B984C884DF80EE80FD8024
:100CA0000C811B81AA81B981CE0FD11D0FB6F8949A
:0E0CB000DEBF0FBECDBFED010895F894FFCF5B
:100CBE0048554D3A005045534F3A0054454D503A21
:100CCE000025337525252000256C64672020200023
:080CDE00253375256343200056
:00000001FF
