:100000000C9434000C9451000C9451000C94510049
:100010000C9451000C9451000C9451000C9451001C
:100020000C9451000C9451000C9451000C9451000C
:100030000C9451000C9451000C9451000C945100FC
:100040000C9451000C9451000C9443020C945100F8
:100050000C9451000C9451000C9451000C945100DC
:100060000C9451000C94510011241FBECFEFD8E026
:10007000DEBFCDBF11E0A0E0B1E0E2ECFAE002C0EB
:1000800005900D92A231B107D9F721E0A2E1B1E0CC
:1000900001C01D92A432B207E1F70E94C4010C9482
:1000A0005F050C94000087B18F7C87B9443079F0EC
:1000B00018F4442331F023C0403191F04034C9F0AA
:1000C0001EC0E9EBF0E080818C7F80831DC0E9EBEE
:1000D000F0E080818D7F808380818160808314C087
:1000E000E9EBF0E080818E7F808380818260808375
:1000F0000BC0E9EBF0E080818360808305C0E9EB11
:10010000F0E080818C7F808382E18093B800ECEB0B
:10011000F0E0808184608083089584EA8093BC004D
:100120008091BC008823E4F79091B900987F81E02A
:10013000983009F080E0089584EA8093BC008091B3
:10014000BC008823E4F79091B900987F81E090315A
:1001500009F080E0089584E98093BC008091BC00A0
:1001600084FDFCCF08958093BB0084E88093BC009D
:100170008091BC008823E4F78091B900887F8831A2
:1001800021F0883219F481E0089581E00895FC019E
:10019000662321F084EC8093BC0003C084E8809344
:1001A000BC009091BC009923E4F79091B900987F2E
:1001B000662311F0903549F4611102C0983539F485
:1001C0008091BB00808381E0089580E0089580E005
:1001D000089580FF04C09BB194609BB903C09BB19C
:1001E0009B7F9BB981FF04C09BB198609BB903C002
:1001F0009BB1977F9BB982FF04C09BB190619BB973
:1002000003C09BB19F7E9BB983FF04C09BB19062EA
:100210009BB903C09BB19F7D9BB984FF04C09BB178
:1002200090649BB903C09BB19F7B9BB985FF04C0C1
:100230009BB190689BB903C09BB19F779BB986FF28
:1002400004C095B1916095B903C095B19E7F95B9F1
:10025000882324F485B1826085B9089585B18D7FA6
:1002600085B9089598B19D7F98B90E94E90088B139
:10027000816088B98FE19EE40197F1F700C000002A
:1002800088B18E7F88B908958AB18C6F8AB984B19C
:10029000836084B987B1836087B98BB183708BB970
:1002A00085B18C7F85B988B18C7F88B980E00E9448
:1002B000E9002FEF89EF90E0215080409040E1F776
:1002C00000C0000080E30E9432018FE19EE40197AC
:1002D000F1F700C0000080E30E9432018FED91E051
:1002E0000197F1F700C0000080E30E9432018FED1A
:1002F00091E00197F1F700C0000088E30E9432010D
:100300008FED91E00197F1F700C0000088E30E94B3
:1003100032018CE00E94320186E00E94320181E0CD
:100320000E943201089598B1926098B90E94E90044
:1003300088B1816088B98FE19EE40197F1F700C030
:10034000000088B18E7F88B908950F931F93CF93D3
:100350008C01C0E003C00E949301CF5FF801EC0F55
:10036000F11D80818111F7CFCF911F910F910895D9
:10037000613021F481580E9432010895623019F4ED
:1003800081540E94320108950E9444010E94530248
:1003900044E060EA76E881E090E00E94530061E08A
:1003A00082E00E94B80180E091E00E94A50161E036
:1003B00087E00E94B80184E091E00E94A50161E01D
:1003C0008DE00E94B80188E091E00E94A50187B10C
:1003D000886087B988B1877F88B978940E948D003A
:1003E000882309F44FC080E60E94B300811103C046
:1003F0000E94AB00089583E40E94B3000E949C0019
:10040000811103C00E94AB00089581E60E94B300F1
:10041000811103C00E94AB00089588B1886088B93B
:1004200060E082E191E00E94C70062E081E00E940A
:10043000B801809112011F928F938CE091E09F93FD
:100440008F931F9287E08F938DE191E09F938F931D
:100450000E9467028DE191E00E94A5010E94AB001D
:100460002FEF83ED90E3215080409040E1F700C0F2
:1004700000008DB79EB708960FB6F8949EBF0FBECA
:100480008DBFACCF08951F920F920FB60F9211241B
:100490008F938091C60080931C018F910F900FBEA7
:1004A0000F901F9018958AB182608AB98AB18E7FA9
:1004B0008AB91092C000E2ECF0E08081866080830F
:1004C00087E690E09093C5008093C4000895AEE065
:1004D000B0E0EDE6F2E00C9436050D891E898F89B7
:1004E000988D26E02C831A83098397FF02C080E051
:1004F00090E801979E838D83AE01455E5F4F698DC5
:100500007A8DCE0101960E9497024D815E8157FD42
:100510000AC02F813885421753070CF49A01F8015D
:10052000E20FF31F10822E96E4E00C945205ABE02C
:10053000B0E0EDE9F2E00C9428056C017B018A0142
:10054000FC0117821682838181FFCCC1CE01019606
:100550003C01F6019381F70193FD859193FF819111
:100560007F01882309F4BAC1853239F493FD85915E
:1005700093FF81917F01853229F4B60190E00E94BA
:100580008E04E7CF912C212C312CFFE1F315D8F00C
:100590008B3279F038F4803279F08332A1F4232D54
:1005A00020611DC08D3261F0803369F4232D2160FC
:1005B00016C0832D8260382EE32DE4603E2E2AC0C3
:1005C000F32DF8601DC037FC2DC020ED280F2A3018
:1005D00040F08E32B9F436FC81C1232D2064322ED6
:1005E00019C036FE06C08AE0989E200D1124922E76
:1005F00011C0EAE02E9E200D1124222EF32DF06270
:100600003F2E08C08C3621F4832D8068382E02C01E
:10061000883641F4F70193FD859193FF81917F0125
:100620008111B3CF982F9F7D9554933028F40C5FA0
:100630001F4F9FE399830DC0833631F0833771F0EC
:10064000833509F059C021C0F801808189830E5F8C
:100650001F4F88248394912C530113C02801F2E08A
:100660004F0E511CF801A080B18036FE03C0692DE9
:1006700070E002C06FEF7FEFC5010E9483044C0160
:100680008201F32DFF773F2E16C0280122E0420E93
:10069000511CF801A080B18036FE03C0692D70E0C6
:1006A00002C06FEF7FEFC5010E9478044C01F32D6B
:1006B000F0683F2E820133FC1BC0822D90E088162B
:1006C0009906B0F4B60180E290E00E948E042A946C
:1006D000F4CFF50137FC859137FE81915F01B601BA
:1006E00090E00E948E0421102A9421E0821A910841
:1006F0008114910471F7E8C0843611F0893641F510
:10070000F80137FE07C060817181828193810C5F9F
:100710001F4F08C060817181072E000C880B990B58
:100720000E5F1F4FF32DFF763F2E97FF09C0909568
:100730008095709561957F4F8F4F9F4FF0683F2E4A
:100740002AE030E0A3010E94CA04882E861845C022
:10075000853731F4232D2F7EB22E2AE030E025C0DC
:10076000932D997FB92E8F36C1F018F4883579F022
:10077000B5C0803719F0883721F0B0C0E92FE061AB
:10078000BE2EB4FE0DC0FB2DF460BF2E09C034FE9A
:100790000AC0292F2660B22E06C028E030E005C02E
:1007A00020E130E002C020E132E0F801B7FE07C0EE
:1007B00060817181828193810C5F1F4F06C06081CF
:1007C000718180E090E00E5F1F4FA3010E94CA0478
:1007D000882E8618FB2DFF773F2E36FE0DC0232D69
:1007E0002E7FA22E891458F434FE0BC032FC09C0AF
:1007F000832D8E7EA82E05C0B82CA32C03C0B82C48
:1008000001C0B92CA4FE0FC0FE01E80DF11D8081CE
:10081000803321F49A2D997EA92E09C0A2FE06C02C
:10082000B394B39404C08A2D867809F0B394A3FCE2
:1008300011C0A0FE06C0B21488F4280C922C9B189C
:100840000EC0B21460F4B60180E290E00E948E0403
:10085000B394F7CFB21418F42B1802C0982C212CA3
:10086000A4FE10C0B60180E390E00E948E04A2FEB8
:1008700017C0A1FC03C088E790E002C088E590E0C3
:10088000B6010CC08A2D867859F0A1FE02C08BE219
:1008900001C080E2A7FC8DE2B60190E00E948E04C8
:1008A000891438F4B60180E390E00E948E049A9493
:1008B000F7CF8A94F301E80DF11D8081B60190E035
:1008C0000E948E048110F5CF222009F442CEB60199
:1008D00080E290E00E948E042A94F6CFF601868191
:1008E000978102C08FEF9FEF2B96E2E10C944405B5
:1008F000FC010590615070400110D8F780959095EB
:100900008E0F9F1F0895FC016150704001900110EF
:10091000D8F7809590958E0F9F1F08950F931F9382
:10092000CF93DF93FB01238121FD03C08FEF9FEF66
:100930002CC022FF16C04681578124813581421781
:10094000530744F4A081B1819D012F5F3F4F318354
:1009500020838C93268137812F5F3F4F37832683F7
:1009600014C08B01EC01FB010084F185E02D099599
:10097000892BE1F6D80116968D919C9117970196D7
:1009800017969C938E931697CE01DF91CF911F916E
:100990000F910895FA01AA27283051F1203181F1F1
:1009A000E8946F936E7F6E5F7F4F8F4F9F4FAF4F77
:1009B000B1E03ED0B4E03CD0670F781F891F9A1F8A
:1009C000A11D680F791F8A1F911DA11D6A0F711D3E
:1009D000811D911DA11D20D009F468943F912AE04A
:1009E000269F11243019305D3193DEF6CF01089532
:1009F000462F4770405D4193B3E00FD0C9F7F6CF63
:100A0000462F4F70405D4A3318F0495D31FD40522A
:100A1000419302D0A9F7EACFB4E0A69597958795C0
:100A200077956795BA95C9F700976105710508959F
:100A30009B01AC010A2E069457954795379527954B
:100A4000BA95C9F7620F731F841F951FA01D0895E3
:100A50002F923F924F925F926F927F928F929F92CE
:100A6000AF92BF92CF92DF92EF92FF920F931F93BC
:100A7000CF93DF93CDB7DEB7CA1BDB0B0FB6F8946D
:100A8000DEBF0FBECDBF09942A88398848885F84AD
:100A90006E847D848C849B84AA84B984C884DF801E
:100AA000EE80FD800C811B81AA81B981CE0FD11D02
:100AB0000FB6F894DEBF0FBECDBFED010895F894D8
:020AC000FFCF66
:100AC20053313A0053323A0053333A0025337520FA
:020AD200000022
:00000001FF
