S00E0000736C617665312E73726563CA
S11300000C9434000C9446000C9446000C94460066
S11300100C9446000C9446000C9446000C94460044
S11300200C9446000C9446000C9446000C94460034
S11300300C9446000C9446000C9446000C94460024
S11300400C9446000C9446000C9446000C94460014
S11300500C9446000C94B0000C9446000C9446009A
S11300600C94E4000C94460011241FBECFEFD8E09A
S1130070DEBFCDBF21E0A0E0B1E001C01D92A730FA
S1130080B207E1F70E9472000C94A4010C940000E2
S1130090ECE7F0E01082808180648083808180625C
S11300A08083808181608083EAE7F0E01082808130
S11300B0806880838081886080838081876080837A
S11300C0089597B19F7C97B9880F8093BA0085E40F
S11300D08093BC00089584B1806184B988B18F7E17
S11300E088B90895F89487B18D7F87B984B1806207
S11300F084B98AB188608AB98BB1877F8BB987B19B
S1130100886087B988B1877F88B90E946B000E9494
S113011048008FE19EE40E94660180E30E94610032
S1130120789480910001823021F485B18F7E85B965
S113013011C0813021F485B1806185B90BC08091F3
S113014006018A3020F485B1806185B903C085B188
S11301508F7E85B9EAE7F0E0808180648083E1CF17
S11301601F920F920FB60F9211242F935F936F93E8
S11301707F938F939F93AF93BF93EF93FF9380915C
S11301807900809301018091010124E6289FC00138
S113019011246FEF70E00E947C01261B209306015E
S11301A0EAE7F0E0808180618083FF91EF91BF9165
S11301B0AF919F918F917F916F915F912F910F904C
S11301C00FBE0F901F9018951F920F920FB60F92AB
S11301D011248F939F93EF93FF9395B180E2892726
S11301E085B98091B900887F803A09F45BC058F4DE
S11301F08037A9F018F4803691F05CC08038C9F0DB
S11302008039B9F057C0883BE1F118F4883A89F194
S113021051C0803C09F440C0883CF1F14BC01092BD
S1130220050110920401ECEBF0E08081856C808381
S113023044C08091BB00809303018091050181112A
S113024008C0809103018093040181E0809305013B
S11302500CC080910401833421F4809103018093C4
S11302600001109205011092040185EC8093BC00FA
S113027024C0809106018093BB0085EC8093BC0070
S11302801CC088B1886088B9809106018093BB0046
S113029085EC8093BC0011C0ECEBF0E0108285E4A7
S11302A080830BC0109205011092040185EC8093A9
S11302B0BC0003C085EC8093BC00FF91EF919F913B
S11302C08F910F900FBE0F901F9018959C0194B1C1
S11302D0966094B9E0E8F0E0108282EA8083E1E875
S11302E0F0E0108288E18083908192609083309363
S11302F0870020938600089597FB072E16F4009438
S113030007D077FD09D00E94900107FC05D03EF488
S1130310909581959F4F0895709561957F4F0895AD
S1130320AA1BBB1B51E107C0AA1FBB1FA617B70717
S113033010F0A61BB70B881F991F5A95A9F7809533
S10F03409095BC01CD010895F894FFCF06
S9030000FC
