:100000000C9434000C9446000C9446000C9446006A
:100010000C9446000C9446000C9446000C94460048
:100020000C9446000C9446000C9446000C94460038
:100030000C9446000C9446000C9446000C94460028
:100040000C9446000C9446000C9446000C94460018
:100050000C9446000C949F000C9446000C944600AF
:100060000C94B8000C94460011241FBECFEFD8E0CA
:10007000DEBFCDBF21E0A0E0B1E001C01D92A23003
:10008000B207E1F70E946B000C9426010C9400006B
:10009000ECE7F0E010828081806480838081806260
:1000A0008083808181608083EAE7F0E01082808134
:1000B000806880838081886080838081876080837E
:1000C000089597B19F7C97B9880F8093BA0085E413
:1000D0008093BC00089587B18D7F87B984B1806219
:1000E00084B98AB188608AB98BB1877F8BB987B1AF
:1000F000886087B988B1877F88B90E9448008FE1FE
:100100009EE40E94100180E30E9461007894809137
:100110000101833429F48BB188608BB910920101FD
:10012000EAE7F0E08081806480832FEF83ED90E345
:10013000215080409040E1F700C00000E8CF1F92BE
:100140000F920FB60F9211248F93EF93FF9380912C
:10015000790080930001EAE7F0E08081806180838C
:10016000FF91EF918F910F900FBE0F901F901895F8
:100170001F920F920FB60F9211248F939F93EF93BC
:10018000FF9395B180E2892785B98091B9008C7F72
:10019000803AB1F158F48037A1F018F4803689F034
:1001A00033C08038A1F0803991F02EC0883BB9F07F
:1001B00018F4883AA1F028C0803CE1F0883CD1F0E6
:1001C00023C0ECEBF0E08081856C808320C08091BF
:1001D000BB008093010185EC8093BC0018C088B1FE
:1001E000886088B9809100018093BB0085EC809382
:1001F000BC000DC0ECEBF0E0108285EC808307C002
:1002000085EC8093BC0003C085EC8093BC00FF911B
:10021000EF919F918F910F900FBE0F901F901895A7
:100220009C0194B1966094B9E0E8F0E0108282EA13
:100230008083E1E8F0E0108288E180839081926021
:10024000908330938700209386000895F894FFCF21
:00000001FF
