:100000000C9434000C9446000C9446000C9446006A
:100010000C9446000C9446000C9446000C94460048
:100020000C9446000C9446000C9446000C94460038
:100030000C9446000C9446000C9446000C94460028
:100040000C9446000C9446000C9446000C94460018
:100050000C9446000C94AB000C9446000C944600A3
:100060000C94DF000C94460011241FBECFEFD8E0A3
:10007000DEBFCDBF21E0A0E0B1E001C01D92A33002
:10008000B207E1F70E9472000C9475010C94000015
:10009000ECE7F0E010828081806480838081806260
:1000A0008083808181608083EAE7F0E01082808134
:1000B000806880838081886080838081876080837E
:1000C000089597B19F7C97B9880F8093BA0085E413
:1000D0008093BC00089584B1806184B988B18F7E1B
:1000E00088B90895F89487B18D7F87B984B180620B
:1000F00084B98AB188608AB98BB1877F8BB987B19F
:10010000886087B988B1877F88B90E946B000E9498
:1001100048008FE19EE40E94370180E30E94610065
:10012000789480910101833481F48BB188608BB91C
:1001300010920101809102018A3020F485B1806122
:1001400085B903C085B18F7E85B9EAE7F0E080818B
:1001500080648083E6CF1F920F920FB60F92112416
:100160002F935F936F937F938F939F93AF93BF93DF
:10017000EF93FF93809179008093000180910001BB
:1001800024E6289FC00111246FEF70E00E944D010A
:10019000261B20930201EAE7F0E0808180618083E2
:1001A000FF91EF91BF91AF919F918F917F916F914F
:1001B0005F912F910F900FBE0F901F9018951F9277
:1001C0000F920FB60F9211248F939F93EF93FF938B
:1001D00095B180E2892785B98091B900887F803AFE
:1001E000B1F158F48037A1F018F4803689F033C0AB
:1001F0008038A1F0803991F02EC0883BB9F018F416
:10020000883AA1F028C0803CE1F0883CD1F023C0BE
:10021000ECEBF0E08081856C808320C08091BB0096
:100220008093010185EC8093BC0018C088B1886080
:1002300088B9809102018093BB0085EC8093BC005B
:100240000DC0ECEBF0E0108285E4808307C085EC04
:100250008093BC0003C085EC8093BC00FF91EF91BC
:100260009F918F910F900FBE0F901F9018959C013A
:1002700094B1966094B9E0E8F0E0108282EA80835D
:10028000E1E8F0E0108288E18083908192609083C1
:100290003093870020938600089597FB072E16F46D
:1002A000009407D077FD09D00E94610107FC05D0BA
:1002B0003EF4909581959F4F0895709561957F4F7D
:1002C0000895AA1BBB1B51E107C0AA1FBB1FA6179D
:1002D000B70710F0A61BB70B881F991F5A95A9F7EF
:0E02E00080959095BC01CD010895F894FFCF54
:00000001FF
