S00E0000736C617665322E73726563C9
S11300000C9434000C9446000C9446000C94460066
S11300100C9446000C9446000C9446000C94460044
S11300200C9446000C9446000C9446000C94460034
S11300300C9446000C9446000C9446000C94460024
S11300400C9446000C9446000C9446000C94460014
S11300500C9446000C9470000C9446000C944600DA
S11300600C9489000C94460011241FBECFEFD8E0F5
S1130070DEBFCDBF21E0A0E0B1E001C01D92A230FF
S1130080B207E1F70E9452000C94F3000C940000B4
S113009097B19F7C97B9880F8093BA0085E48093C9
S11300A0BC00089587B1886087B987B18D7F87B90F
S11300B084B1806284B988B1877F88B98FE19EE476
S11300C00E94DD0080E50E9448007894809101013F
S11300D08435E1F788B1886088B910920101F6CFC0
S11300E01F920F920FB60F9211248F93EF93FF93E9
S11300F08091790080930001EAE7F0E080818061DB
S11301008083FF91EF918F910F900FBE0F901F90FE
S113011018951F920F920FB60F9211248F939F93ED
S1130120EF93FF9395B180E2892785B98091B90057
S1130130887F803A91F158F48037A1F018F4803622
S113014089F02FC08038A1F0803991F02AC0883B13
S1130150B9F018F4883AA1F024C0803CC1F0883C7E
S1130160B1F01FC0ECEBF0E08081856C80831CC093
S11301708091BB008093010185EC8093BC0014C086
S113018082E38093BB0085EC8093BC000DC0ECEB54
S1130190F0E0108285E4808307C085EC8093BC0086
S11301A003C085EC8093BC00FF91EF919F918F91E8
S11301B00F900FBE0F901F9018959C0194B19660FC
S11301C094B9E0E8F0E0108282EA8083E1E8F0E0AC
S11301D0108288E1808390819260908330938700BD
S10D01E0209386000895F894FFCFE1
S9030000FC
