S00E0000736C617665322E73726563C9
S11300000C9434000C9451000C9451000C94510045
S11300100C9451000C9451000C9451000C94510018
S11300200C9451000C9451000C9451000C94510008
S11300300C9451000C9471020C9451000C945100D6
S11300400C9451000C9451000C9451000C945100E8
S11300500C9451000C9485020C9451000C945100A2
S11300600C949E020C94510011241FBECFEFD8E0D3
S1130070DEBFCDBF11E0A0E0B1E0ECEDFCE002C0DA
S113008005900D92A831B107D9F721E0A8E1B1E0BC
S113009001C01D92A732B207E1F70E9487010C94B8
S11300A06C060C940000ECE7F0E010828081806420
S11300B08083808180628083808181608083EAE79D
S11300C0F0E01082808180688083808188608083F2
S11300D0808187608083089587B1826087B987B102
S11300E08B7F87B988B18D7F88B9089586B186954D
S11300F0869591E08927817008950E94760088236F
S1130100E1F390E040E050E0BA0115C088B18260AC
S113011088B985E08A95F1F70000440F551F661FE2
S1130120771F3299416088B18D7F88B985E08A95BF
S1130130F1F700009F5F983148F388B1826088B975
S113014085E08A95F1F7000088B18D7F88B985E054
S11301508A95F1F7000067FD7F6FCB01BA0108951E
S11301602F923F924F925F926F927F928F929F92C3
S1130170AF92BF92CF92DF92EF92FF920F931F93B1
S1130180CF93DF93282E811102C022242394512C73
S1130190612C712C812C912CD0E0C0E0312C412CAD
S11301A023C00E947D006B017C01FF0CCC08DC2C79
S11301B07601262F372F482F592F6C2D7C2D8C2D0F
S11301C09C2DA62CB72CC82CD92CED2EFC2E032D3F
S11301D0142D0E946306622E732E842E952ED62F24
S11301E0C72F382E492E53945214D8F2A22CB12C76
S11301F0C12CD12CE12CF12C00E010E0262D372D60
S1130200482D592D6D2F7C2F832D942D0E948E0502
S1130210622F732F842F952FDF91CF911F910F9110
S1130220FF90EF90DF90CF90BF90AF909F908F9012
S11302307F906F905F904F903F902F900895CF9351
S1130240DF930097C1F0EC01488359836A837B8371
S11302506C817D818E819F8120E030E0A9010E9424
S1130260C003811108C080E090E0A0E8BFE38C8364
S11302709D83AE83BF83DF91CF910895CF92DF92A8
S1130280EF92FF920F931F930097C1F0FC018081BE
S11302909181A281B3818A019B01081B190B2A0B4E
S11302A03B0BC901B801C480D580E680F7800E9469
S11302B06F04A70196010E94C50303C060E070E0CB
S11302C0CB011F910F91FF90EF90DF90CF90089595
S11302D097B19F7C97B9880F8093BA0085E4809387
S11302E0BC0008958AB18C638AB98BB1837C8BB9C5
S11302F008951092800086E09FEF9093850080938C
S11303008400EFE6F0E08081816080830895F894B2
S113031087B1886087B987B18D7F87B984B18062DE
S113032084B988B1877F88B90E946C000E94530009
S11303308FE19EE40E94250380E50E9468010E94EB
S113034072010E94790178942FEF83EC99E0215097
S113035080409040E1F700C000008EE10E94B000B0
S1130360AB01BC0180E091E00E941F018091230158
S1130370843501F588B1886088B910922301809191
S11303801D0190911E01A0911F01B0912001863999
S11303909105A105B1052CF08CE890E00E943B0387
S11303A009C08D329140A105B10524F480E090E0AC
S11303B00E943B03909118019093190180912601AA
S11303C0893120F081E08093180108C0863120F43F
S11303D082E08093180102C01092180180911801E4
S11303E08130F9F4981316C018C02BB1E82FF0E04F
S11303F0E05FFE4F9081922B9BB9EFECF7E03197D1
S1130400F1F700C000008F5F01C080E0883068F31E
S11304103F5F01C030E03930C0F38BB1837C8BB9CE
S113042024C08230F9F4981316C01FC02BB1E82FF2
S1130430F0E0E85FFE4F9081922B9BB9EFECF7E080
S11304403197F1F700C000008F5F01C080E0883071
S113045068F33F5F01C030E03930C0F38BB1837C77
S11304608BB903C08BB1837C8BB984E10E94B0004B
S1130470AB01BC0180E091E00E943E016B017C0174
S1130480F7FAF094F7F8F09420E030E0A901C701FE
S1130490B6010E94C00388231CF4C12CD12C760120
S11304A020E030E040E05FE3C701B6010E9454035E
S11304B00E94370460931D0170931E0180931F01F5
S11304C090932001F89480911D0190911E01209138
S11304D01F01209324019093250180932101789496
S11304E045CF1F920F920FB60F9211248F939F93B3
S11304F086E09FEF90938500809384009F918F9175
S11305000F900FBE0F901F9018951F920F920FB669
S11305100F9211248F93EF93FF938091790080932E
S11305202201EAE7F0E0808180618083FF91EF910E
S11305308F910F900FBE0F901F9018951F920F92DE
S11305400FB60F9211248F939F93EF93FF9395B15E
S113055080E2892785B98091B900887F803A09F4BF
S113056064C058F48037B1F018F4803699F061C053
S11305708038B1F08039A1F05CC0883BC1F118F437
S1130580883A51F156C0803C09F447C0883C09F4CC
S113059044C04FC0ECEBF0E08081856C80834CC09C
S11305A08091BB0080931C0190911A01992329F03A
S11305B08093260110921A010BC08091BB00809396
S11305C023018B3429F481E080931A0110922301D2
S11305D085EC8093BC0030C0809124018093BB00E3
S11305E081E080931B0185EC8093BC0025C0809141
S11305F01B01813041F482E080931B01809125012D
S11306008093BB0006C010921B018091210180934E
S1130610BB0085EC8093BC000FC010921B01ECEB77
S1130620F0E0108285E4808307C085EC8093BC00F1
S113063003C085EC8093BC00FF91EF919F918F9153
S11306400F900FBE0F901F9018959C0194B1966067
S113065094B9E0E8F0E0108282EA8083E1E8F0E017
S1130660108288E180839081926090833093870028
S1130670209386000895BC0180E090E00E946D0400
S113068026E636E640EA51E40E941F0520E030E009
S113069046E954E40E9454030E943E047093890086
S11306A06093880008955058BB27AA270E946B03C3
S11306B00C94E5040E94D70438F00E94DE0420F074
S11306C039F49F3F19F426F40C94D4040EF4E09505
S11306D0E7FB0C94CE04E92F0E94F60458F3BA17F2
S11306E0620773078407950720F079F4A6F50C9444
S11306F018050EF4E0950B2EBA2FA02D0B01B901AD
S113070090010C01CA01A0011124FF27591B99F083
S1130710593F50F4503E68F11A16F040A22F232F8F
S1130720342F4427585FF3CF469537952795A795DF
S1130730F0405395C9F77EF41F16BA0B620B730B86
S1130740840BBAF09150A1F0FF0FBB1F661F771FF7
S1130750881FC2F70EC0BA0F621F731F841F48F4AC
S1130760879577956795B795F7959E3F08F0B0CF35
S11307709395880F08F09927EE0F9795879508951C
S11307800E94AA0408F481E008950E94D9030C94FD
S1130790E5040E94DE0458F00E94D70440F029F4D6
S11307A05F3F29F00C94CE0451110C9419050C945C
S11307B0D4040E94F60468F39923B1F3552391F30A
S11307C0951B550BBB27AA2762177307840738F0BC
S11307D09F5F5F4F220F331F441FAA1FA9F335D019
S11307E00E2E3AF0E0E832D091505040E695001CCD
S11307F0CAF72BD0FE2F29D0660F771F881FBB1F87
S1130800261737074807AB07B0E809F0BB0B802D64
S1130810BF01FF2793585F4F3AF09E3F510578F090
S11308200C94CE040C9419055F3FE4F3983ED4F382
S1130830869577956795B795F7959F5FC9F7880F64
S1130840911D9695879597F90895E1E0660F771FB6
S1130850881FBB1F621773078407BA0720F0621B47
S1130860730B840BBA0BEE1F88F7E09508950E9472
S11308703E046894B1110C94190508950E94FE0475
S113088088F09F5798F0B92F9927B751B0F0E1F04D
S1130890660F771F881F991F1AF0BA95C9F714C0FD
S11308A0B13091F00E941805B1E008950C94180538
S11308B0672F782F8827B85F39F0B93FCCF3869536
S11308C077956795B395D9F73EF490958095709593
S11308D061957F4F8F4F9F4F0895E89409C097FB10
S11308E03EF490958095709561957F4F8F4F9F4F03
S11308F09923A9F0F92F96E9BB279395F695879547
S113090077956795B795F111F8CFFAF4BB0F11F409
S113091060FF1BC06F5F7F4F8F4F9F4F16C08823B0
S113092011F096E911C0772321F09EE8872F762FE6
S113093005C0662371F096E8862F70E060E02AF027
S11309409A95660F771F881FDAF7880F9695879513
S113095097F90895990F0008550FAA0BE0E8FEEFE8
S113096016161706E807F907C0F012161306E4076F
S1130970F50798F0621B730B840B950B39F40A2668
S113098061F0232B242B252B21F408950A2609F446
S1130990A140A6958FEF811D811D089597F99F674A
S11309A080E870E060E008959FEF80EC08950024F3
S11309B00A941616170618060906089500240A94C0
S11309C012161306140605060895092E0394000C46
S11309D011F4882352F0BB0F40F4BF2B11F460FFD5
S11309E004C06F5F7F4F8F4F9F4F089557FD9058FE
S11309F0440F551F59F05F3F71F04795880F97FBDF
S1130A00991F61F09F3F79F0879508951216130698
S1130A101406551FF2CF4695F1DF08C016161706C7
S1130A201806991FF1CF86957105610508940895FC
S1130A30E894BB2766277727CB0197F908950E948E
S1130A4032050C94E5040E94D70438F00E94DE04B9
S1130A5020F0952311F00C94CE040C94D4041124AA
S1130A600C9419050E94F60470F3959FC1F3950F39
S1130A7050E0551F629FF001729FBB27F00DB11D1E
S1130A80639FAA27F00DB11DAA1F649F6627B00DAE
S1130A90A11D661F829F2227B00DA11D621F739F97
S1130AA0B00DA11D621F839FA00D611D221F749FA5
S1130AB03327A00D611D231F849F600D211D822FEC
S1130AC0762F6A2F11249F5750409AF0F1F0882313
S1130AD04AF0EE0FFF1FBB1F661F771F881F915040
S1130AE05040A9F79E3F510580F00C94CE040C941D
S1130AF019055F3FE4F3983ED4F38695779567959F
S1130B00B795F795E7959F5FC1F7FE2B880F911D69
S1130B109695879597F90895689401C0E894F92FFC
S1130B20F12B12F00C94C005A0E0B0E0EAE9F5E086
S1130B300C943206092E059422F40E941C061123FB
S1130B4092F4F0E80F26FFEFE094F09400951095EE
S1130B50B094C094D094A194BF0ACF0ADF0AEF0ADC
S1130B60FF0A0F0B1F0B0E94CB0507FC0E941C06FB
S1130B70CDB7DEB7ECE00C944E06689401C0E8945F
S1130B808F929F92CF93DF930E94CB05DF91CF91F9
S1130B909F908F90089588249924F401E401B0E48F
S1130BA09F93AA279A158B049C04ED05FE05CF0597
S1130BB0D007A10798F4AD2FDC2FCF2FFE2FE92DFE
S1130BC0982C892E982F872F762F652F542F432FFB
S1130BD0322F2227B85031F7BF9127C01B2EBF9167
S1130BE0BB27220F331F441F551F661F771F881F03
S1130BF0991F881C991CEE1FFF1FCC1FDD1FAA1F05
S1130C00BB1F8A149B04EC05FD05CE05DF05A00778
S1130C10B10748F08A189B08EC09FD09CE09DF09E1
S1130C20A00BB10B21601A94E1F62EF49401AF01EC
S1130C30BE01CD01000C0895609570958095909546
S1130C4030954095509521953F4F4F4F5F4F6F4FD3
S1130C507F4F8F4F9F4F08952F923F924F925F92F5
S1130C606F927F928F929F92AF92BF92CF92DF92B8
S1130C70EF92FF920F931F93CF93DF93CDB7DEB71D
S1130C80CA1BDB0B0FB6F894DEBF0FBECDBF0994B1
S1130C902A88398848885F846E847D848C849B8408
S1130CA0AA84B984C884DF80EE80FD800C811B8116
S1130CB0AA81B981CE0FD11D0FB6F894DEBF0FBE45
S1130CC0CDBFED0108952A0D3B1D4C1D5D1D6E1D0C
S10F0CD07F1D801F911F0895F894FFCF32
S1130CDC000000009A59154420301018080C042404
S10B0CEC040C08181030202448
S9030000FC
